{
  "_format": "hh-sol-artifact-1",
  "contractName": "Tracking",
  "sourceName": "contracts/Tracking.sol",
  "abi": [
    {
      "inputs": [],
      "stateMutability": "nonpayable",
      "type": "constructor"
    },
    {
      "anonymous": false,
      "inputs": [
        {
          "indexed": true,
          "internalType": "address",
          "name": "sender",
          "type": "address"
        },
        {
          "indexed": true,
          "internalType": "address",
          "name": "receiver",
          "type": "address"
        },
        {
          "indexed": false,
          "internalType": "uint256",
          "name": "pickupTime",
          "type": "uint256"
        },
        {
          "indexed": false,
          "internalType": "uint256",
          "name": "distance",
          "type": "uint256"
        },
        {
          "indexed": false,
          "internalType": "uint256",
          "name": "price",
          "type": "uint256"
        }
      ],
      "name": "ShipmentCreated",
      "type": "event"
    },
    {
      "anonymous": false,
      "inputs": [
        {
          "indexed": true,
          "internalType": "address",
          "name": "sender",
          "type": "address"
        },
        {
          "indexed": true,
          "internalType": "address",
          "name": "receiver",
          "type": "address"
        },
        {
          "indexed": false,
          "internalType": "uint256",
          "name": "deliveryTime",
          "type": "uint256"
        }
      ],
      "name": "ShipmentDelivered",
      "type": "event"
    },
    {
      "anonymous": false,
      "inputs": [
        {
          "indexed": true,
          "internalType": "address",
          "name": "sender",
          "type": "address"
        },
        {
          "indexed": true,
          "internalType": "address",
          "name": "receiver",
          "type": "address"
        },
        {
          "indexed": false,
          "internalType": "uint256",
          "name": "pickupTime",
          "type": "uint256"
        }
      ],
      "name": "ShipmentInCustomsInspection",
      "type": "event"
    },
    {
      "anonymous": false,
      "inputs": [
        {
          "indexed": true,
          "internalType": "address",
          "name": "sender",
          "type": "address"
        },
        {
          "indexed": true,
          "internalType": "address",
          "name": "receiver",
          "type": "address"
        },
        {
          "indexed": false,
          "internalType": "uint256",
          "name": "pickupTime",
          "type": "uint256"
        }
      ],
      "name": "ShipmentInTransit",
      "type": "event"
    },
    {
      "anonymous": false,
      "inputs": [
        {
          "indexed": true,
          "internalType": "address",
          "name": "sender",
          "type": "address"
        },
        {
          "indexed": true,
          "internalType": "address",
          "name": "receiver",
          "type": "address"
        },
        {
          "indexed": false,
          "internalType": "uint256",
          "name": "amount",
          "type": "uint256"
        }
      ],
      "name": "ShipmentPaid",
      "type": "event"
    },
    {
      "anonymous": false,
      "inputs": [
        {
          "indexed": true,
          "internalType": "address",
          "name": "sender",
          "type": "address"
        },
        {
          "indexed": true,
          "internalType": "address",
          "name": "receiver",
          "type": "address"
        },
        {
          "indexed": false,
          "internalType": "uint256",
          "name": "pickupTime",
          "type": "uint256"
        }
      ],
      "name": "ShipmentReceivedByTransporter",
      "type": "event"
    },
    {
      "inputs": [
        {
          "internalType": "address",
          "name": "_sender",
          "type": "address"
        },
        {
          "internalType": "address",
          "name": "_receiver",
          "type": "address"
        },
        {
          "internalType": "uint256",
          "name": "_index",
          "type": "uint256"
        }
      ],
      "name": "completeShipment",
      "outputs": [],
      "stateMutability": "nonpayable",
      "type": "function"
    },
    {
      "inputs": [
        {
          "internalType": "address",
          "name": "_receiver",
          "type": "address"
        },
        {
          "internalType": "uint256",
          "name": "_pickupTime",
          "type": "uint256"
        },
        {
          "internalType": "uint256",
          "name": "_distance",
          "type": "uint256"
        },
        {
          "internalType": "uint256",
          "name": "_price",
          "type": "uint256"
        }
      ],
      "name": "createShipment",
      "outputs": [],
      "stateMutability": "payable",
      "type": "function"
    },
    {
      "inputs": [],
      "name": "getAllTransactions",
      "outputs": [
        {
          "components": [
            {
              "internalType": "address",
              "name": "sender",
              "type": "address"
            },
            {
              "internalType": "address",
              "name": "receiver",
              "type": "address"
            },
            {
              "internalType": "uint256",
              "name": "pickupTime",
              "type": "uint256"
            },
            {
              "internalType": "uint256",
              "name": "deliveryTime",
              "type": "uint256"
            },
            {
              "internalType": "uint256",
              "name": "distance",
              "type": "uint256"
            },
            {
              "internalType": "uint256",
              "name": "price",
              "type": "uint256"
            },
            {
              "internalType": "enum Tracking.ShipmentStatus",
              "name": "status",
              "type": "uint8"
            },
            {
              "internalType": "bool",
              "name": "isPaid",
              "type": "bool"
            }
          ],
          "internalType": "struct Tracking.TyepShipment[]",
          "name": "",
          "type": "tuple[]"
        }
      ],
      "stateMutability": "view",
      "type": "function"
    },
    {
      "inputs": [
        {
          "internalType": "address",
          "name": "_sender",
          "type": "address"
        },
        {
          "internalType": "uint256",
          "name": "_index",
          "type": "uint256"
        }
      ],
      "name": "getShipment",
      "outputs": [
        {
          "internalType": "address",
          "name": "",
          "type": "address"
        },
        {
          "internalType": "address",
          "name": "",
          "type": "address"
        },
        {
          "internalType": "uint256",
          "name": "",
          "type": "uint256"
        },
        {
          "internalType": "uint256",
          "name": "",
          "type": "uint256"
        },
        {
          "internalType": "uint256",
          "name": "",
          "type": "uint256"
        },
        {
          "internalType": "uint256",
          "name": "",
          "type": "uint256"
        },
        {
          "internalType": "enum Tracking.ShipmentStatus",
          "name": "",
          "type": "uint8"
        },
        {
          "internalType": "bool",
          "name": "",
          "type": "bool"
        }
      ],
      "stateMutability": "view",
      "type": "function"
    },
    {
      "inputs": [
        {
          "internalType": "address",
          "name": "_sender",
          "type": "address"
        }
      ],
      "name": "getShipmentsCount",
      "outputs": [
        {
          "internalType": "uint256",
          "name": "",
          "type": "uint256"
        }
      ],
      "stateMutability": "view",
      "type": "function"
    },
    {
      "inputs": [
        {
          "internalType": "address",
          "name": "_sender",
          "type": "address"
        },
        {
          "internalType": "uint256",
          "name": "_index",
          "type": "uint256"
        }
      ],
      "name": "markShipmentInCustomsInspection",
      "outputs": [],
      "stateMutability": "nonpayable",
      "type": "function"
    },
    {
      "inputs": [
        {
          "internalType": "address",
          "name": "_sender",
          "type": "address"
        },
        {
          "internalType": "uint256",
          "name": "_index",
          "type": "uint256"
        }
      ],
      "name": "markShipmentReceivedByTransporter",
      "outputs": [],
      "stateMutability": "nonpayable",
      "type": "function"
    },
    {
      "inputs": [],
      "name": "shipmentCount",
      "outputs": [
        {
          "internalType": "uint256",
          "name": "",
          "type": "uint256"
        }
      ],
      "stateMutability": "view",
      "type": "function"
    },
    {
      "inputs": [
        {
          "internalType": "address",
          "name": "",
          "type": "address"
        },
        {
          "internalType": "uint256",
          "name": "",
          "type": "uint256"
        }
      ],
      "name": "shipments",
      "outputs": [
        {
          "internalType": "address",
          "name": "sender",
          "type": "address"
        },
        {
          "internalType": "address",
          "name": "receiver",
          "type": "address"
        },
        {
          "internalType": "uint256",
          "name": "pickupTime",
          "type": "uint256"
        },
        {
          "internalType": "uint256",
          "name": "deliveryTime",
          "type": "uint256"
        },
        {
          "internalType": "uint256",
          "name": "distance",
          "type": "uint256"
        },
        {
          "internalType": "uint256",
          "name": "price",
          "type": "uint256"
        },
        {
          "internalType": "enum Tracking.ShipmentStatus",
          "name": "status",
          "type": "uint8"
        },
        {
          "internalType": "bool",
          "name": "isPaid",
          "type": "bool"
        }
      ],
      "stateMutability": "view",
      "type": "function"
    },
    {
      "inputs": [
        {
          "internalType": "address",
          "name": "_sender",
          "type": "address"
        },
        {
          "internalType": "address",
          "name": "_receiver",
          "type": "address"
        },
        {
          "internalType": "uint256",
          "name": "_index",
          "type": "uint256"
        }
      ],
      "name": "startShipment",
      "outputs": [],
      "stateMutability": "nonpayable",
      "type": "function"
    }
  ],
  "bytecode": "0x608060405234801561001057600080fd5b506000600181905550612075806100286000396000f3fe6080604052600436106100915760003560e01c8063662c7e1711610059578063662c7e17146101945780637ff5265d146101bd5780638365da54146101e6578063aace20b71461022a578063cbc4b1811461025557610091565b8063179a878c146100965780632676a8fa146100bf57806327506f53146100e857806341fdc195146101135780635667e02f14610150575b600080fd5b3480156100a257600080fd5b506100bd60048036038101906100b891906116cd565b610271565b005b3480156100cb57600080fd5b506100e660048036038101906100e19190611720565b610645565b005b3480156100f457600080fd5b506100fd610832565b60405161010a9190611962565b60405180910390f35b34801561011f57600080fd5b5061013a60048036038101906101359190611984565b6109bc565b60405161014791906119c0565b60405180910390f35b34801561015c57600080fd5b5061017760048036038101906101729190611720565b610a07565b60405161018b989796959493929190611a08565b60405180910390f35b3480156101a057600080fd5b506101bb60048036038101906101b69190611720565b610ac6565b005b3480156101c957600080fd5b506101e460048036038101906101df91906116cd565b610d7d565b005b3480156101f257600080fd5b5061020d60048036038101906102089190611720565b610fd9565b604051610221989796959493929190611a08565b60405180910390f35b34801561023657600080fd5b5061023f6111c3565b60405161024c91906119c0565b60405180910390f35b61026f600480360381019061026a9190611a86565b6111c9565b005b60008060008573ffffffffffffffffffffffffffffffffffffffff1673ffffffffffffffffffffffffffffffffffffffff16815260200190815260200160002082815481106102c3576102c2611aed565b5b906000526020600020906007020190506000600283815481106102e9576102e8611aed565b5b906000526020600020906007020190508373ffffffffffffffffffffffffffffffffffffffff168260010160009054906101000a900473ffffffffffffffffffffffffffffffffffffffff1673ffffffffffffffffffffffffffffffffffffffff161461038b576040517f08c379a000000000000000000000000000000000000000000000000000000000815260040161038290611b79565b60405180910390fd5b6003600481111561039f5761039e6117aa565b5b8260060160009054906101000a900460ff1660048111156103c3576103c26117aa565b5b14610403576040517f08c379a00000000000000000000000000000000000000000000000000000000081526004016103fa90611c0b565b60405180910390fd5b8160060160019054906101000a900460ff1615610455576040517f08c379a000000000000000000000000000000000000000000000000000000000815260040161044c90611c77565b60405180910390fd5b60048260060160006101000a81548160ff0219169083600481111561047d5761047c6117aa565b5b021790555060048160060160006101000a81548160ff021916908360048111156104aa576104a96117aa565b5b02179055504281600301819055504282600301819055506000826005015490508260000160009054906101000a900473ffffffffffffffffffffffffffffffffffffffff1673ffffffffffffffffffffffffffffffffffffffff166108fc829081150290604051600060405180830381858888f19350505050158015610534573d6000803e3d6000fd5b5060018360060160016101000a81548160ff02191690831515021790555060018260060160016101000a81548160ff0219169083151502179055508473ffffffffffffffffffffffffffffffffffffffff168673ffffffffffffffffffffffffffffffffffffffff167f3746ccceb54f44c9b0ee0120e596168d07ec9f6ca303cfdd9810d3b2e2686a2e85600301546040516105d091906119c0565b60405180910390a38473ffffffffffffffffffffffffffffffffffffffff168673ffffffffffffffffffffffffffffffffffffffff167f2b6f2473aebafaf8d0889669490135928ec4454d2e29a103fd39693bbca6aef18360405161063591906119c0565b60405180910390a3505050505050565b60008060008473ffffffffffffffffffffffffffffffffffffffff1673ffffffffffffffffffffffffffffffffffffffff168152602001908152602001600020828154811061069757610696611aed565b5b906000526020600020906007020190506000600283815481106106bd576106bc611aed565b5b90600052602060002090600702019050600160048111156106e1576106e06117aa565b5b8260060160009054906101000a900460ff166004811115610705576107046117aa565b5b14610745576040517f08c379a000000000000000000000000000000000000000000000000000000000815260040161073c90611ce3565b60405180910390fd5b60028260060160006101000a81548160ff0219169083600481111561076d5761076c6117aa565b5b021790555060028160060160006101000a81548160ff0219169083600481111561079a576107996117aa565b5b02179055508160010160009054906101000a900473ffffffffffffffffffffffffffffffffffffffff1673ffffffffffffffffffffffffffffffffffffffff168473ffffffffffffffffffffffffffffffffffffffff167fd8b4d6729618279f7d4fade6ef0107c26ba35a21587946deb16f46d0d0fd144b846002015460405161082491906119c0565b60405180910390a350505050565b60606002805480602002602001604051908101604052809291908181526020016000905b828210156109b35783829060005260206000209060070201604051806101000160405290816000820160009054906101000a900473ffffffffffffffffffffffffffffffffffffffff1673ffffffffffffffffffffffffffffffffffffffff1673ffffffffffffffffffffffffffffffffffffffff1681526020016001820160009054906101000a900473ffffffffffffffffffffffffffffffffffffffff1673ffffffffffffffffffffffffffffffffffffffff1673ffffffffffffffffffffffffffffffffffffffff168152602001600282015481526020016003820154815260200160048201548152602001600582015481526020016006820160009054906101000a900460ff166004811115610973576109726117aa565b5b6004811115610985576109846117aa565b5b81526020016006820160019054906101000a900460ff16151515158152505081526020019060010190610856565b50505050905090565b60008060008373ffffffffffffffffffffffffffffffffffffffff1673ffffffffffffffffffffffffffffffffffffffff168152602001908152602001600020805490509050919050565b60006020528160005260406000208181548110610a2357600080fd5b9060005260206000209060070201600091509150508060000160009054906101000a900473ffffffffffffffffffffffffffffffffffffffff16908060010160009054906101000a900473ffffffffffffffffffffffffffffffffffffffff16908060020154908060030154908060040154908060050154908060060160009054906101000a900460ff16908060060160019054906101000a900460ff16905088565b60008060008473ffffffffffffffffffffffffffffffffffffffff1673ffffffffffffffffffffffffffffffffffffffff1681526020019081526020016000208281548110610b1857610b17611aed565b5b90600052602060002090600702019050600060028381548110610b3e57610b3d611aed565b5b9060005260206000209060070201905060026004811115610b6257610b616117aa565b5b8260060160009054906101000a900460ff166004811115610b8657610b856117aa565b5b14610bc6576040517f08c379a0000000000000000000000000000000000000000000000000000000008152600401610bbd90611d75565b60405180910390fd5b60036004811115610bda57610bd96117aa565b5b8260060160009054906101000a900460ff166004811115610bfe57610bfd6117aa565b5b03610c3e576040517f08c379a0000000000000000000000000000000000000000000000000000000008152600401610c3590611e07565b60405180910390fd5b8160060160019054906101000a900460ff1615610c90576040517f08c379a0000000000000000000000000000000000000000000000000000000008152600401610c8790611e73565b60405180910390fd5b60038260060160006101000a81548160ff02191690836004811115610cb857610cb76117aa565b5b021790555060038160060160006101000a81548160ff02191690836004811115610ce557610ce46117aa565b5b02179055508160010160009054906101000a900473ffffffffffffffffffffffffffffffffffffffff1673ffffffffffffffffffffffffffffffffffffffff168473ffffffffffffffffffffffffffffffffffffffff167fc21d1e0d3dc81be514a1269048f34255410eea278de28491edb02d173e00060f8460020154604051610d6f91906119c0565b60405180910390a350505050565b60008060008573ffffffffffffffffffffffffffffffffffffffff1673ffffffffffffffffffffffffffffffffffffffff1681526020019081526020016000208281548110610dcf57610dce611aed565b5b90600052602060002090600702019050600060028381548110610df557610df4611aed565b5b906000526020600020906007020190508373ffffffffffffffffffffffffffffffffffffffff168260010160009054906101000a900473ffffffffffffffffffffffffffffffffffffffff1673ffffffffffffffffffffffffffffffffffffffff1614610e97576040517f08c379a0000000000000000000000000000000000000000000000000000000008152600401610e8e90611b79565b60405180910390fd5b60006004811115610eab57610eaa6117aa565b5b8260060160009054906101000a900460ff166004811115610ecf57610ece6117aa565b5b14610f0f576040517f08c379a0000000000000000000000000000000000000000000000000000000008152600401610f0690611edf565b60405180910390fd5b60018260060160006101000a81548160ff02191690836004811115610f3757610f366117aa565b5b021790555060018160060160006101000a81548160ff02191690836004811115610f6457610f636117aa565b5b02179055508373ffffffffffffffffffffffffffffffffffffffff168573ffffffffffffffffffffffffffffffffffffffff167faafab9f94340179ff9cefd29621e1772a4b8efab8023163838f1b0a8f6ce5df58460020154604051610fca91906119c0565b60405180910390a35050505050565b60008060008060008060008060008060008c73ffffffffffffffffffffffffffffffffffffffff1673ffffffffffffffffffffffffffffffffffffffff1681526020019081526020016000208a8154811061103757611036611aed565b5b9060005260206000209060070201604051806101000160405290816000820160009054906101000a900473ffffffffffffffffffffffffffffffffffffffff1673ffffffffffffffffffffffffffffffffffffffff1673ffffffffffffffffffffffffffffffffffffffff1681526020016001820160009054906101000a900473ffffffffffffffffffffffffffffffffffffffff1673ffffffffffffffffffffffffffffffffffffffff1673ffffffffffffffffffffffffffffffffffffffff168152602001600282015481526020016003820154815260200160048201548152602001600582015481526020016006820160009054906101000a900460ff16600481111561114a576111496117aa565b5b600481111561115c5761115b6117aa565b5b81526020016006820160019054906101000a900460ff1615151515815250509050806000015181602001518260400151836060015184608001518560a001518660c001518760e0015198509850985098509850985098509850509295985092959890939650565b60015481565b80341461120b576040517f08c379a000000000000000000000000000000000000000000000000000000000815260040161120290611f71565b60405180910390fd5b60006040518061010001604052803373ffffffffffffffffffffffffffffffffffffffff1681526020018673ffffffffffffffffffffffffffffffffffffffff168152602001858152602001600081526020018481526020018381526020016000600481111561127e5761127d6117aa565b5b81526020016000151581525090506000803373ffffffffffffffffffffffffffffffffffffffff1673ffffffffffffffffffffffffffffffffffffffff16815260200190815260200160002081908060018154018082558091505060019003906000526020600020906007020160009091909190915060008201518160000160006101000a81548173ffffffffffffffffffffffffffffffffffffffff021916908373ffffffffffffffffffffffffffffffffffffffff16021790555060208201518160010160006101000a81548173ffffffffffffffffffffffffffffffffffffffff021916908373ffffffffffffffffffffffffffffffffffffffff16021790555060408201518160020155606082015181600301556080820151816004015560a0820151816005015560c08201518160060160006101000a81548160ff021916908360048111156113d5576113d46117aa565b5b021790555060e08201518160060160016101000a81548160ff02191690831515021790555050506001600081548092919061140f90611fc0565b919050555060026040518061010001604052803373ffffffffffffffffffffffffffffffffffffffff1681526020018773ffffffffffffffffffffffffffffffffffffffff1681526020018681526020016000815260200185815260200184815260200160006004811115611487576114866117aa565b5b815260200160001515815250908060018154018082558091505060019003906000526020600020906007020160009091909190915060008201518160000160006101000a81548173ffffffffffffffffffffffffffffffffffffffff021916908373ffffffffffffffffffffffffffffffffffffffff16021790555060208201518160010160006101000a81548173ffffffffffffffffffffffffffffffffffffffff021916908373ffffffffffffffffffffffffffffffffffffffff16021790555060408201518160020155606082015181600301556080820151816004015560a0820151816005015560c08201518160060160006101000a81548160ff0219169083600481111561159d5761159c6117aa565b5b021790555060e08201518160060160016101000a81548160ff02191690831515021790555050508473ffffffffffffffffffffffffffffffffffffffff163373ffffffffffffffffffffffffffffffffffffffff167f5001b34ecf2db5b7bbeddcbbe761ec9ecadcc7638018b98ce3e24995b0e946b686868660405161162593929190612008565b60405180910390a35050505050565b600080fd5b600073ffffffffffffffffffffffffffffffffffffffff82169050919050565b600061166482611639565b9050919050565b61167481611659565b811461167f57600080fd5b50565b6000813590506116918161166b565b92915050565b6000819050919050565b6116aa81611697565b81146116b557600080fd5b50565b6000813590506116c7816116a1565b92915050565b6000806000606084860312156116e6576116e5611634565b5b60006116f486828701611682565b935050602061170586828701611682565b9250506040611716868287016116b8565b9150509250925092565b6000806040838503121561173757611736611634565b5b600061174585828601611682565b9250506020611756858286016116b8565b9150509250929050565b600081519050919050565b600082825260208201905092915050565b6000819050602082019050919050565b61179581611659565b82525050565b6117a481611697565b82525050565b7f4e487b7100000000000000000000000000000000000000000000000000000000600052602160045260246000fd5b600581106117ea576117e96117aa565b5b50565b60008190506117fb826117d9565b919050565b600061180b826117ed565b9050919050565b61181b81611800565b82525050565b60008115159050919050565b61183681611821565b82525050565b61010082016000820151611853600085018261178c565b506020820151611866602085018261178c565b506040820151611879604085018261179b565b50606082015161188c606085018261179b565b50608082015161189f608085018261179b565b5060a08201516118b260a085018261179b565b5060c08201516118c560c0850182611812565b5060e08201516118d860e085018261182d565b50505050565b60006118ea838361183c565b6101008301905092915050565b6000602082019050919050565b600061190f82611760565b611919818561176b565b93506119248361177c565b8060005b8381101561195557815161193c88826118de565b9750611947836118f7565b925050600181019050611928565b5085935050505092915050565b6000602082019050818103600083015261197c8184611904565b905092915050565b60006020828403121561199a57611999611634565b5b60006119a884828501611682565b91505092915050565b6119ba81611697565b82525050565b60006020820190506119d560008301846119b1565b92915050565b6119e481611659565b82525050565b6119f381611800565b82525050565b611a0281611821565b82525050565b600061010082019050611a1e600083018b6119db565b611a2b602083018a6119db565b611a3860408301896119b1565b611a4560608301886119b1565b611a5260808301876119b1565b611a5f60a08301866119b1565b611a6c60c08301856119ea565b611a7960e08301846119f9565b9998505050505050505050565b60008060008060808587031215611aa057611a9f611634565b5b6000611aae87828801611682565b9450506020611abf878288016116b8565b9350506040611ad0878288016116b8565b9250506060611ae1878288016116b8565b91505092959194509250565b7f4e487b7100000000000000000000000000000000000000000000000000000000600052603260045260246000fd5b600082825260208201905092915050565b7f496e76616c69642072656365697665722e000000000000000000000000000000600082015250565b6000611b63601183611b1c565b9150611b6e82611b2d565b602082019050919050565b60006020820190508181036000830152611b9281611b56565b9050919050565b7f536869706d656e74206e6f7420766572696669656420627920637573746f6d7360008201527f2e00000000000000000000000000000000000000000000000000000000000000602082015250565b6000611bf5602183611b1c565b9150611c0082611b99565b604082019050919050565b60006020820190508181036000830152611c2481611be8565b9050919050565b7f536869706d656e7420616c726561647920706169642e00000000000000000000600082015250565b6000611c61601683611b1c565b9150611c6c82611c2b565b602082019050919050565b60006020820190508181036000830152611c9081611c54565b9050919050565b7f536869706d656e74206973206e6f7420696e207472616e7369742e0000000000600082015250565b6000611ccd601b83611b1c565b9150611cd882611c97565b602082019050919050565b60006020820190508181036000830152611cfc81611cc0565b9050919050565b7f536869706d656e74206e6f74207265636569766564206279207472616e73706f60008201527f727465722e000000000000000000000000000000000000000000000000000000602082015250565b6000611d5f602583611b1c565b9150611d6a82611d03565b604082019050919050565b60006020820190508181036000830152611d8e81611d52565b9050919050565b7f536869706d656e7420697320616c726561647920696e20637573746f6d73206960008201527f6e7370656374696f6e2e00000000000000000000000000000000000000000000602082015250565b6000611df1602a83611b1c565b9150611dfc82611d95565b604082019050919050565b60006020820190508181036000830152611e2081611de4565b9050919050565b7f536869706d656e7420697320616c726561647920706169642e00000000000000600082015250565b6000611e5d601983611b1c565b9150611e6882611e27565b602082019050919050565b60006020820190508181036000830152611e8c81611e50565b9050919050565b7f536869706d656e7420616c726561647920696e207472616e7369742e00000000600082015250565b6000611ec9601c83611b1c565b9150611ed482611e93565b602082019050919050565b60006020820190508181036000830152611ef881611ebc565b9050919050565b7f5061796d656e7420616d6f756e74206d757374206d617463682074686520707260008201527f6963652e00000000000000000000000000000000000000000000000000000000602082015250565b6000611f5b602483611b1c565b9150611f6682611eff565b604082019050919050565b60006020820190508181036000830152611f8a81611f4e565b9050919050565b7f4e487b7100000000000000000000000000000000000000000000000000000000600052601160045260246000fd5b6000611fcb82611697565b91507fffffffffffffffffffffffffffffffffffffffffffffffffffffffffffffffff8203611ffd57611ffc611f91565b5b600182019050919050565b600060608201905061201d60008301866119b1565b61202a60208301856119b1565b61203760408301846119b1565b94935050505056fea2646970667358221220177d17bed1f6532a3794f7dffb11addf364baccad936c0cabd9806d84372695764736f6c63430008130033",
  "linkReferences": {},
  "deployedLinkReferences": {}
}