{
  "_format": "hh-sol-artifact-1",
  "contractName": "Tracking",
  "sourceName": "contracts/Tracking.sol",
  "abi": [
    {
      "inputs": [],
      "stateMutability": "nonpayable",
      "type": "constructor"
    },
    {
      "anonymous": false,
      "inputs": [
        {
          "indexed": true,
          "internalType": "address",
          "name": "sender",
          "type": "address"
        },
        {
          "indexed": true,
          "internalType": "address",
          "name": "receiver",
          "type": "address"
        },
        {
          "indexed": false,
          "internalType": "uint256",
          "name": "pickupTime",
          "type": "uint256"
        },
        {
          "indexed": false,
          "internalType": "uint256",
          "name": "distance",
          "type": "uint256"
        },
        {
          "indexed": false,
          "internalType": "uint256",
          "name": "price",
          "type": "uint256"
        }
      ],
      "name": "ShipmentCreated",
      "type": "event"
    },
    {
      "anonymous": false,
      "inputs": [
        {
          "indexed": true,
          "internalType": "address",
          "name": "sender",
          "type": "address"
        },
        {
          "indexed": true,
          "internalType": "address",
          "name": "receiver",
          "type": "address"
        },
        {
          "indexed": false,
          "internalType": "uint256",
          "name": "deliveryTime",
          "type": "uint256"
        }
      ],
      "name": "ShipmentDelivered",
      "type": "event"
    },
    {
      "anonymous": false,
      "inputs": [
        {
          "indexed": true,
          "internalType": "address",
          "name": "sender",
          "type": "address"
        },
        {
          "indexed": true,
          "internalType": "address",
          "name": "receiver",
          "type": "address"
        },
        {
          "indexed": false,
          "internalType": "uint256",
          "name": "pickupTime",
          "type": "uint256"
        }
      ],
      "name": "ShipmentInCustomsInspection",
      "type": "event"
    },
    {
      "anonymous": false,
      "inputs": [
        {
          "indexed": true,
          "internalType": "address",
          "name": "sender",
          "type": "address"
        },
        {
          "indexed": true,
          "internalType": "address",
          "name": "receiver",
          "type": "address"
        },
        {
          "indexed": false,
          "internalType": "uint256",
          "name": "pickupTime",
          "type": "uint256"
        }
      ],
      "name": "ShipmentInTransit",
      "type": "event"
    },
    {
      "anonymous": false,
      "inputs": [
        {
          "indexed": true,
          "internalType": "address",
          "name": "sender",
          "type": "address"
        },
        {
          "indexed": true,
          "internalType": "address",
          "name": "receiver",
          "type": "address"
        },
        {
          "indexed": false,
          "internalType": "uint256",
          "name": "amount",
          "type": "uint256"
        }
      ],
      "name": "ShipmentPaid",
      "type": "event"
    },
    {
      "anonymous": false,
      "inputs": [
        {
          "indexed": true,
          "internalType": "address",
          "name": "sender",
          "type": "address"
        },
        {
          "indexed": true,
          "internalType": "address",
          "name": "receiver",
          "type": "address"
        },
        {
          "indexed": false,
          "internalType": "uint256",
          "name": "pickupTime",
          "type": "uint256"
        }
      ],
      "name": "ShipmentReceivedByTransporter",
      "type": "event"
    },
    {
      "inputs": [
        {
          "internalType": "address",
          "name": "_sender",
          "type": "address"
        },
        {
          "internalType": "address",
          "name": "_receiver",
          "type": "address"
        },
        {
          "internalType": "uint256",
          "name": "_index",
          "type": "uint256"
        }
      ],
      "name": "completeShipment",
      "outputs": [],
      "stateMutability": "nonpayable",
      "type": "function"
    },
    {
      "inputs": [
        {
          "internalType": "address",
          "name": "_receiver",
          "type": "address"
        },
        {
          "internalType": "uint256",
          "name": "_pickupTime",
          "type": "uint256"
        },
        {
          "internalType": "uint256",
          "name": "_distance",
          "type": "uint256"
        },
        {
          "internalType": "uint256",
          "name": "_price",
          "type": "uint256"
        }
      ],
      "name": "createShipment",
      "outputs": [],
      "stateMutability": "payable",
      "type": "function"
    },
    {
      "inputs": [],
      "name": "getAllTransactions",
      "outputs": [
        {
          "components": [
            {
              "internalType": "address",
              "name": "sender",
              "type": "address"
            },
            {
              "internalType": "address",
              "name": "receiver",
              "type": "address"
            },
            {
              "internalType": "uint256",
              "name": "pickupTime",
              "type": "uint256"
            },
            {
              "internalType": "uint256",
              "name": "deliveryTime",
              "type": "uint256"
            },
            {
              "internalType": "uint256",
              "name": "distance",
              "type": "uint256"
            },
            {
              "internalType": "uint256",
              "name": "price",
              "type": "uint256"
            },
            {
              "internalType": "enum Tracking.ShipmentStatus",
              "name": "status",
              "type": "uint8"
            },
            {
              "internalType": "bool",
              "name": "isPaid",
              "type": "bool"
            }
          ],
          "internalType": "struct Tracking.TyepShipment[]",
          "name": "",
          "type": "tuple[]"
        }
      ],
      "stateMutability": "view",
      "type": "function"
    },
    {
      "inputs": [
        {
          "internalType": "address",
          "name": "_sender",
          "type": "address"
        },
        {
          "internalType": "uint256",
          "name": "_index",
          "type": "uint256"
        }
      ],
      "name": "getShipment",
      "outputs": [
        {
          "internalType": "address",
          "name": "",
          "type": "address"
        },
        {
          "internalType": "address",
          "name": "",
          "type": "address"
        },
        {
          "internalType": "uint256",
          "name": "",
          "type": "uint256"
        },
        {
          "internalType": "uint256",
          "name": "",
          "type": "uint256"
        },
        {
          "internalType": "uint256",
          "name": "",
          "type": "uint256"
        },
        {
          "internalType": "uint256",
          "name": "",
          "type": "uint256"
        },
        {
          "internalType": "enum Tracking.ShipmentStatus",
          "name": "",
          "type": "uint8"
        },
        {
          "internalType": "bool",
          "name": "",
          "type": "bool"
        }
      ],
      "stateMutability": "view",
      "type": "function"
    },
    {
      "inputs": [
        {
          "internalType": "address",
          "name": "_sender",
          "type": "address"
        }
      ],
      "name": "getShipmentsCount",
      "outputs": [
        {
          "internalType": "uint256",
          "name": "",
          "type": "uint256"
        }
      ],
      "stateMutability": "view",
      "type": "function"
    },
    {
      "inputs": [
        {
          "internalType": "address",
          "name": "_sender",
          "type": "address"
        },
        {
          "internalType": "uint256",
          "name": "_index",
          "type": "uint256"
        }
      ],
      "name": "markShipmentInCustomsInspection",
      "outputs": [],
      "stateMutability": "nonpayable",
      "type": "function"
    },
    {
      "inputs": [
        {
          "internalType": "address",
          "name": "_sender",
          "type": "address"
        },
        {
          "internalType": "uint256",
          "name": "_index",
          "type": "uint256"
        }
      ],
      "name": "markShipmentReceivedByTransporter",
      "outputs": [],
      "stateMutability": "nonpayable",
      "type": "function"
    },
    {
      "inputs": [],
      "name": "shipmentCount",
      "outputs": [
        {
          "internalType": "uint256",
          "name": "",
          "type": "uint256"
        }
      ],
      "stateMutability": "view",
      "type": "function"
    },
    {
      "inputs": [
        {
          "internalType": "address",
          "name": "",
          "type": "address"
        },
        {
          "internalType": "uint256",
          "name": "",
          "type": "uint256"
        }
      ],
      "name": "shipments",
      "outputs": [
        {
          "internalType": "address",
          "name": "sender",
          "type": "address"
        },
        {
          "internalType": "address",
          "name": "receiver",
          "type": "address"
        },
        {
          "internalType": "uint256",
          "name": "pickupTime",
          "type": "uint256"
        },
        {
          "internalType": "uint256",
          "name": "deliveryTime",
          "type": "uint256"
        },
        {
          "internalType": "uint256",
          "name": "distance",
          "type": "uint256"
        },
        {
          "internalType": "uint256",
          "name": "price",
          "type": "uint256"
        },
        {
          "internalType": "enum Tracking.ShipmentStatus",
          "name": "status",
          "type": "uint8"
        },
        {
          "internalType": "bool",
          "name": "isPaid",
          "type": "bool"
        }
      ],
      "stateMutability": "view",
      "type": "function"
    },
    {
      "inputs": [
        {
          "internalType": "address",
          "name": "_sender",
          "type": "address"
        },
        {
          "internalType": "address",
          "name": "_receiver",
          "type": "address"
        },
        {
          "internalType": "uint256",
          "name": "_index",
          "type": "uint256"
        }
      ],
      "name": "startShipment",
      "outputs": [],
      "stateMutability": "nonpayable",
      "type": "function"
    }
  ],
  "bytecode": "0x608060405234801561001057600080fd5b506000600181905550611fcd806100286000396000f3fe6080604052600436106100915760003560e01c8063662c7e1711610059578063662c7e17146101945780637ff5265d146101bd5780638365da54146101e6578063aace20b71461022a578063cbc4b1811461025557610091565b8063179a878c146100965780632676a8fa146100bf57806327506f53146100e857806341fdc195146101135780635667e02f14610150575b600080fd5b3480156100a257600080fd5b506100bd60048036038101906100b89190611625565b610271565b005b3480156100cb57600080fd5b506100e660048036038101906100e19190611678565b610645565b005b3480156100f457600080fd5b506100fd6107de565b60405161010a91906118ba565b60405180910390f35b34801561011f57600080fd5b5061013a600480360381019061013591906118dc565b610968565b6040516101479190611918565b60405180910390f35b34801561015c57600080fd5b5061017760048036038101906101729190611678565b6109b3565b60405161018b989796959493929190611960565b60405180910390f35b3480156101a057600080fd5b506101bb60048036038101906101b69190611678565b610a72565b005b3480156101c957600080fd5b506101e460048036038101906101df9190611625565b610cd5565b005b3480156101f257600080fd5b5061020d60048036038101906102089190611678565b610f31565b604051610221989796959493929190611960565b60405180910390f35b34801561023657600080fd5b5061023f61111b565b60405161024c9190611918565b60405180910390f35b61026f600480360381019061026a91906119de565b611121565b005b60008060008573ffffffffffffffffffffffffffffffffffffffff1673ffffffffffffffffffffffffffffffffffffffff16815260200190815260200160002082815481106102c3576102c2611a45565b5b906000526020600020906007020190506000600283815481106102e9576102e8611a45565b5b906000526020600020906007020190508373ffffffffffffffffffffffffffffffffffffffff168260010160009054906101000a900473ffffffffffffffffffffffffffffffffffffffff1673ffffffffffffffffffffffffffffffffffffffff161461038b576040517f08c379a000000000000000000000000000000000000000000000000000000000815260040161038290611ad1565b60405180910390fd5b6003600481111561039f5761039e611702565b5b8260060160009054906101000a900460ff1660048111156103c3576103c2611702565b5b14610403576040517f08c379a00000000000000000000000000000000000000000000000000000000081526004016103fa90611b63565b60405180910390fd5b8160060160019054906101000a900460ff1615610455576040517f08c379a000000000000000000000000000000000000000000000000000000000815260040161044c90611bcf565b60405180910390fd5b60048260060160006101000a81548160ff0219169083600481111561047d5761047c611702565b5b021790555060048160060160006101000a81548160ff021916908360048111156104aa576104a9611702565b5b02179055504281600301819055504282600301819055506000826005015490508260000160009054906101000a900473ffffffffffffffffffffffffffffffffffffffff1673ffffffffffffffffffffffffffffffffffffffff166108fc829081150290604051600060405180830381858888f19350505050158015610534573d6000803e3d6000fd5b5060018360060160016101000a81548160ff02191690831515021790555060018260060160016101000a81548160ff0219169083151502179055508473ffffffffffffffffffffffffffffffffffffffff168673ffffffffffffffffffffffffffffffffffffffff167f3746ccceb54f44c9b0ee0120e596168d07ec9f6ca303cfdd9810d3b2e2686a2e85600301546040516105d09190611918565b60405180910390a38473ffffffffffffffffffffffffffffffffffffffff168673ffffffffffffffffffffffffffffffffffffffff167f2b6f2473aebafaf8d0889669490135928ec4454d2e29a103fd39693bbca6aef1836040516106359190611918565b60405180910390a3505050505050565b60008060008473ffffffffffffffffffffffffffffffffffffffff1673ffffffffffffffffffffffffffffffffffffffff168152602001908152602001600020828154811061069757610696611a45565b5b90600052602060002090600702019050600160048111156106bb576106ba611702565b5b8160060160009054906101000a900460ff1660048111156106df576106de611702565b5b1461071f576040517f08c379a000000000000000000000000000000000000000000000000000000000815260040161071690611c3b565b60405180910390fd5b60028160060160006101000a81548160ff0219169083600481111561074757610746611702565b5b02179055508060010160009054906101000a900473ffffffffffffffffffffffffffffffffffffffff1673ffffffffffffffffffffffffffffffffffffffff168373ffffffffffffffffffffffffffffffffffffffff167fd8b4d6729618279f7d4fade6ef0107c26ba35a21587946deb16f46d0d0fd144b83600201546040516107d19190611918565b60405180910390a3505050565b60606002805480602002602001604051908101604052809291908181526020016000905b8282101561095f5783829060005260206000209060070201604051806101000160405290816000820160009054906101000a900473ffffffffffffffffffffffffffffffffffffffff1673ffffffffffffffffffffffffffffffffffffffff1673ffffffffffffffffffffffffffffffffffffffff1681526020016001820160009054906101000a900473ffffffffffffffffffffffffffffffffffffffff1673ffffffffffffffffffffffffffffffffffffffff1673ffffffffffffffffffffffffffffffffffffffff168152602001600282015481526020016003820154815260200160048201548152602001600582015481526020016006820160009054906101000a900460ff16600481111561091f5761091e611702565b5b600481111561093157610930611702565b5b81526020016006820160019054906101000a900460ff16151515158152505081526020019060010190610802565b50505050905090565b60008060008373ffffffffffffffffffffffffffffffffffffffff1673ffffffffffffffffffffffffffffffffffffffff168152602001908152602001600020805490509050919050565b600060205281600052604060002081815481106109cf57600080fd5b9060005260206000209060070201600091509150508060000160009054906101000a900473ffffffffffffffffffffffffffffffffffffffff16908060010160009054906101000a900473ffffffffffffffffffffffffffffffffffffffff16908060020154908060030154908060040154908060050154908060060160009054906101000a900460ff16908060060160019054906101000a900460ff16905088565b60008060008473ffffffffffffffffffffffffffffffffffffffff1673ffffffffffffffffffffffffffffffffffffffff1681526020019081526020016000208281548110610ac457610ac3611a45565b5b9060005260206000209060070201905060026004811115610ae857610ae7611702565b5b8160060160009054906101000a900460ff166004811115610b0c57610b0b611702565b5b14610b4c576040517f08c379a0000000000000000000000000000000000000000000000000000000008152600401610b4390611ccd565b60405180910390fd5b60036004811115610b6057610b5f611702565b5b8160060160009054906101000a900460ff166004811115610b8457610b83611702565b5b03610bc4576040517f08c379a0000000000000000000000000000000000000000000000000000000008152600401610bbb90611d5f565b60405180910390fd5b8060060160019054906101000a900460ff1615610c16576040517f08c379a0000000000000000000000000000000000000000000000000000000008152600401610c0d90611dcb565b60405180910390fd5b60038160060160006101000a81548160ff02191690836004811115610c3e57610c3d611702565b5b02179055508060010160009054906101000a900473ffffffffffffffffffffffffffffffffffffffff1673ffffffffffffffffffffffffffffffffffffffff168373ffffffffffffffffffffffffffffffffffffffff167fc21d1e0d3dc81be514a1269048f34255410eea278de28491edb02d173e00060f8360020154604051610cc89190611918565b60405180910390a3505050565b60008060008573ffffffffffffffffffffffffffffffffffffffff1673ffffffffffffffffffffffffffffffffffffffff1681526020019081526020016000208281548110610d2757610d26611a45565b5b90600052602060002090600702019050600060028381548110610d4d57610d4c611a45565b5b906000526020600020906007020190508373ffffffffffffffffffffffffffffffffffffffff168260010160009054906101000a900473ffffffffffffffffffffffffffffffffffffffff1673ffffffffffffffffffffffffffffffffffffffff1614610def576040517f08c379a0000000000000000000000000000000000000000000000000000000008152600401610de690611ad1565b60405180910390fd5b60006004811115610e0357610e02611702565b5b8260060160009054906101000a900460ff166004811115610e2757610e26611702565b5b14610e67576040517f08c379a0000000000000000000000000000000000000000000000000000000008152600401610e5e90611e37565b60405180910390fd5b60018260060160006101000a81548160ff02191690836004811115610e8f57610e8e611702565b5b021790555060018160060160006101000a81548160ff02191690836004811115610ebc57610ebb611702565b5b02179055508373ffffffffffffffffffffffffffffffffffffffff168573ffffffffffffffffffffffffffffffffffffffff167faafab9f94340179ff9cefd29621e1772a4b8efab8023163838f1b0a8f6ce5df58460020154604051610f229190611918565b60405180910390a35050505050565b60008060008060008060008060008060008c73ffffffffffffffffffffffffffffffffffffffff1673ffffffffffffffffffffffffffffffffffffffff1681526020019081526020016000208a81548110610f8f57610f8e611a45565b5b9060005260206000209060070201604051806101000160405290816000820160009054906101000a900473ffffffffffffffffffffffffffffffffffffffff1673ffffffffffffffffffffffffffffffffffffffff1673ffffffffffffffffffffffffffffffffffffffff1681526020016001820160009054906101000a900473ffffffffffffffffffffffffffffffffffffffff1673ffffffffffffffffffffffffffffffffffffffff1673ffffffffffffffffffffffffffffffffffffffff168152602001600282015481526020016003820154815260200160048201548152602001600582015481526020016006820160009054906101000a900460ff1660048111156110a2576110a1611702565b5b60048111156110b4576110b3611702565b5b81526020016006820160019054906101000a900460ff1615151515815250509050806000015181602001518260400151836060015184608001518560a001518660c001518760e0015198509850985098509850985098509850509295985092959890939650565b60015481565b803414611163576040517f08c379a000000000000000000000000000000000000000000000000000000000815260040161115a90611ec9565b60405180910390fd5b60006040518061010001604052803373ffffffffffffffffffffffffffffffffffffffff1681526020018673ffffffffffffffffffffffffffffffffffffffff16815260200185815260200160008152602001848152602001838152602001600060048111156111d6576111d5611702565b5b81526020016000151581525090506000803373ffffffffffffffffffffffffffffffffffffffff1673ffffffffffffffffffffffffffffffffffffffff16815260200190815260200160002081908060018154018082558091505060019003906000526020600020906007020160009091909190915060008201518160000160006101000a81548173ffffffffffffffffffffffffffffffffffffffff021916908373ffffffffffffffffffffffffffffffffffffffff16021790555060208201518160010160006101000a81548173ffffffffffffffffffffffffffffffffffffffff021916908373ffffffffffffffffffffffffffffffffffffffff16021790555060408201518160020155606082015181600301556080820151816004015560a0820151816005015560c08201518160060160006101000a81548160ff0219169083600481111561132d5761132c611702565b5b021790555060e08201518160060160016101000a81548160ff02191690831515021790555050506001600081548092919061136790611f18565b919050555060026040518061010001604052803373ffffffffffffffffffffffffffffffffffffffff1681526020018773ffffffffffffffffffffffffffffffffffffffff16815260200186815260200160008152602001858152602001848152602001600060048111156113df576113de611702565b5b815260200160001515815250908060018154018082558091505060019003906000526020600020906007020160009091909190915060008201518160000160006101000a81548173ffffffffffffffffffffffffffffffffffffffff021916908373ffffffffffffffffffffffffffffffffffffffff16021790555060208201518160010160006101000a81548173ffffffffffffffffffffffffffffffffffffffff021916908373ffffffffffffffffffffffffffffffffffffffff16021790555060408201518160020155606082015181600301556080820151816004015560a0820151816005015560c08201518160060160006101000a81548160ff021916908360048111156114f5576114f4611702565b5b021790555060e08201518160060160016101000a81548160ff02191690831515021790555050508473ffffffffffffffffffffffffffffffffffffffff163373ffffffffffffffffffffffffffffffffffffffff167f5001b34ecf2db5b7bbeddcbbe761ec9ecadcc7638018b98ce3e24995b0e946b686868660405161157d93929190611f60565b60405180910390a35050505050565b600080fd5b600073ffffffffffffffffffffffffffffffffffffffff82169050919050565b60006115bc82611591565b9050919050565b6115cc816115b1565b81146115d757600080fd5b50565b6000813590506115e9816115c3565b92915050565b6000819050919050565b611602816115ef565b811461160d57600080fd5b50565b60008135905061161f816115f9565b92915050565b60008060006060848603121561163e5761163d61158c565b5b600061164c868287016115da565b935050602061165d868287016115da565b925050604061166e86828701611610565b9150509250925092565b6000806040838503121561168f5761168e61158c565b5b600061169d858286016115da565b92505060206116ae85828601611610565b9150509250929050565b600081519050919050565b600082825260208201905092915050565b6000819050602082019050919050565b6116ed816115b1565b82525050565b6116fc816115ef565b82525050565b7f4e487b7100000000000000000000000000000000000000000000000000000000600052602160045260246000fd5b6005811061174257611741611702565b5b50565b600081905061175382611731565b919050565b600061176382611745565b9050919050565b61177381611758565b82525050565b60008115159050919050565b61178e81611779565b82525050565b610100820160008201516117ab60008501826116e4565b5060208201516117be60208501826116e4565b5060408201516117d160408501826116f3565b5060608201516117e460608501826116f3565b5060808201516117f760808501826116f3565b5060a082015161180a60a08501826116f3565b5060c082015161181d60c085018261176a565b5060e082015161183060e0850182611785565b50505050565b60006118428383611794565b6101008301905092915050565b6000602082019050919050565b6000611867826116b8565b61187181856116c3565b935061187c836116d4565b8060005b838110156118ad5781516118948882611836565b975061189f8361184f565b925050600181019050611880565b5085935050505092915050565b600060208201905081810360008301526118d4818461185c565b905092915050565b6000602082840312156118f2576118f161158c565b5b6000611900848285016115da565b91505092915050565b611912816115ef565b82525050565b600060208201905061192d6000830184611909565b92915050565b61193c816115b1565b82525050565b61194b81611758565b82525050565b61195a81611779565b82525050565b600061010082019050611976600083018b611933565b611983602083018a611933565b6119906040830189611909565b61199d6060830188611909565b6119aa6080830187611909565b6119b760a0830186611909565b6119c460c0830185611942565b6119d160e0830184611951565b9998505050505050505050565b600080600080608085870312156119f8576119f761158c565b5b6000611a06878288016115da565b9450506020611a1787828801611610565b9350506040611a2887828801611610565b9250506060611a3987828801611610565b91505092959194509250565b7f4e487b7100000000000000000000000000000000000000000000000000000000600052603260045260246000fd5b600082825260208201905092915050565b7f496e76616c69642072656365697665722e000000000000000000000000000000600082015250565b6000611abb601183611a74565b9150611ac682611a85565b602082019050919050565b60006020820190508181036000830152611aea81611aae565b9050919050565b7f536869706d656e74206e6f7420766572696669656420627920637573746f6d7360008201527f2e00000000000000000000000000000000000000000000000000000000000000602082015250565b6000611b4d602183611a74565b9150611b5882611af1565b604082019050919050565b60006020820190508181036000830152611b7c81611b40565b9050919050565b7f536869706d656e7420616c726561647920706169642e00000000000000000000600082015250565b6000611bb9601683611a74565b9150611bc482611b83565b602082019050919050565b60006020820190508181036000830152611be881611bac565b9050919050565b7f536869706d656e74206973206e6f7420696e207472616e7369742e0000000000600082015250565b6000611c25601b83611a74565b9150611c3082611bef565b602082019050919050565b60006020820190508181036000830152611c5481611c18565b9050919050565b7f536869706d656e74206e6f74207265636569766564206279207472616e73706f60008201527f727465722e000000000000000000000000000000000000000000000000000000602082015250565b6000611cb7602583611a74565b9150611cc282611c5b565b604082019050919050565b60006020820190508181036000830152611ce681611caa565b9050919050565b7f536869706d656e7420697320616c726561647920696e20637573746f6d73206960008201527f6e7370656374696f6e2e00000000000000000000000000000000000000000000602082015250565b6000611d49602a83611a74565b9150611d5482611ced565b604082019050919050565b60006020820190508181036000830152611d7881611d3c565b9050919050565b7f536869706d656e7420697320616c726561647920706169642e00000000000000600082015250565b6000611db5601983611a74565b9150611dc082611d7f565b602082019050919050565b60006020820190508181036000830152611de481611da8565b9050919050565b7f536869706d656e7420616c726561647920696e207472616e7369742e00000000600082015250565b6000611e21601c83611a74565b9150611e2c82611deb565b602082019050919050565b60006020820190508181036000830152611e5081611e14565b9050919050565b7f5061796d656e7420616d6f756e74206d757374206d617463682074686520707260008201527f6963652e00000000000000000000000000000000000000000000000000000000602082015250565b6000611eb3602483611a74565b9150611ebe82611e57565b604082019050919050565b60006020820190508181036000830152611ee281611ea6565b9050919050565b7f4e487b7100000000000000000000000000000000000000000000000000000000600052601160045260246000fd5b6000611f23826115ef565b91507fffffffffffffffffffffffffffffffffffffffffffffffffffffffffffffffff8203611f5557611f54611ee9565b5b600182019050919050565b6000606082019050611f756000830186611909565b611f826020830185611909565b611f8f6040830184611909565b94935050505056fea264697066735822122041588bdc30f9ce9059301f4b1dfa6be7c5a5c30a9dc4f2c1100d7a38f4acf14964736f6c63430008130033",
  "linkReferences": {},
  "deployedLinkReferences": {}
}